:020000040800F2
:10000000000002204D610008150C0008170C0008C4
:10001000190C00081B0C00081D0C00080000000053
:10002000000000000000000000000000815E0008E9
:100030001F0C000800000000215F0008175A00088C
:100040009D6100089D6100089D6100089D61000898
:100050009D6100089D6100089D6100089D61000888
:100060009D6100089D6100089D6100089D61000878
:100070009D6100089D6100089D6100089D61000868
:100080009D6100089D6100089D6100089D61000858
:100090009D6100089D6100089D6100089D61000848
:1000A0009D6100089D6100089D6100089D61000838
:1000B0009D6100089D6100089D6100089D61000828
:1000C0009D6100089D6100089D6100089D61000818
:1000D0009D6100089D6100089D6100089D61000808
:1000E0009D6100089D610008000000009D610008FE
:1000F0009D6100089D6100089D6100089D610008E8
:100100009D6100089D6100089D6100089D610008D7
:100110009D6100089D610008210C00089D61000898
:100120009D6100089D6100089D6100089D610008B7
:100130009D6100089D6100089D6100089D610008A7
:1001400000000000000000000000000000000000AF
:100150009D6100089D6100089D6100089D61000887
:100160009D6100089D6100089D6100089D61000877
:100170009D6100089D6100089D610008000000006D
:100180009D6100089D6100089D6100089D61000857
:100190009D6100089D6100089D6100089D61000847
:1001A0009D6100089D6100089D6100089D61000837
:1001B0009D6100089D6100089D6100089D61000827
:1001C0009D6100089D6100089D6100089D61000817
:1001D0009D6100089D6100089D6100089D61000807
:1001E0009D6100089D6100089D6100089D610008F7
:1001F0009D6100089D6100089D6100089D610008E7
:100200009D6100089D6100089D6100089D610008D6
:100210009D6100089D6100089D6100089D610008C6
:100220009D6100089D6100089D61000800000000BC
:100230009D6100089D610008000000009D610008AC
:100240009D6100089D6100089D6100089D61000896
:100250009D6100089D6100089D6100089D61000886
:100260009D6100089D6100089D6100089D61000876
:100270009D6100089D6100089D610008000000006C
:100280009D6100089D6100089D610008000000005C
:08029000000000009D61000860
:1002A00010B5054C237833B9044B13B10448AFF3B0
:1002B00000800123237010BDD40000200000000046
:1002C0001462000808B5034B1BB103490348AFF3A0
:1002D000008008BD00000000D80000201462000863
:1002E00053B94AB9002908BF00281CBF4FF0FF319D
:1002F0004FF0FF3000F074B9ADF1080C6DE904CE99
:1003000000F006F8DDF804E0DDE9022304B07047F0
:100310002DE9F047089D04468E46002B4DD18A42B8
:10032000944669D9B2FA82F252B101FA02F3C2F1EB
:10033000200120FA01F10CFA02FC41EA030E94407C
:100340004FEA1C48210CBEFBF8F61FFA8CF708FB9D
:1003500016E341EA034306FB07F199420AD91CEB75
:10036000030306F1FF3080F01F81994240F21C81A7
:10037000023E63445B1AA4B2B3FBF8F008FB1033EF
:1003800044EA034400FB07F7A7420AD91CEB040424
:1003900000F1FF3380F00A81A74240F207816444F4
:1003A000023840EA0640E41B00261DB1D440002379
:1003B000C5E900433146BDE8F0878B4209D9002DDD
:1003C00000F0EF800026C5E9000130463146BDE867
:1003D000F087B3FA83F6002E4AD18B4202D38242D1
:1003E00000F2F980841A61EB030301209E46002D80
:1003F000E0D0C5E9004EDDE702B9FFDEB2FA82F2D5
:10040000002A40F09280A1EB0C014FEA1C471FFA32
:100410008CFE0126200CB1FBF7F307FB131140EA19
:1004200001410EFB03F0884208D91CEB010103F1E6
:10043000FF3802D2884200F2CB804346091AA4B2A8
:10044000B1FBF7F007FB101144EA01440EFB00FE7C
:10045000A64508D91CEB040400F1FF3102D2A645E1
:1004600000F2BB800846A4EB0E0440EA03409CE780
:10047000C6F12007B34022FA07FC4CEA030C20FA2D
:1004800007F401FA06F31C43F9404FEA1C4900FA4D
:1004900006F3B1FBF9F8200C1FFA8CFE09FB1811CA
:1004A00040EA014108FB0EF0884202FA06F20BD93D
:1004B0001CEB010108F1FF3A80F08880884240F28D
:1004C0008580A8F102086144091AA4B2B1FBF9F0D1
:1004D00009FB101144EA014100FB0EFE8E4508D9CC
:1004E0001CEB010100F1FF346CD28E456AD9023851
:1004F000614440EA0840A0FB0294A1EB0E01A14236
:10050000C846A64656D353D05DB1B3EB080261EBA3
:100510000E0101FA07F722FA06F3F1401F43C5E97D
:10052000007100263146BDE8F087C2F12003D840B3
:100530000CFA02FC21FA03F3914001434FEA1C47F5
:100540001FFA8CFEB3FBF7F007FB10360B0C43EAE7
:10055000064300FB0EF69E4204FA02F408D91CEB97
:10056000030300F1FF382FD29E422DD90238634495
:100570009B1B89B2B3FBF7F607FB163341EA034135
:1005800006FB0EF38B4208D91CEB010106F1FF3884
:1005900016D28B4214D9023E6144C91A46EA00467B
:1005A00038E72E46284605E70646E3E61846F8E60D
:1005B0004B45A9D2B9EB020864EB0C0E0138A3E756
:1005C0004646EAE7204694E74046D1E7D0467BE737
:1005D000023B614432E7304609E76444023842E7AF
:1005E000704700BF08B50268034B9A4200D008BDAF
:1005F00002F0EAFDFBE700BF0010004072B6FEE724
:1006000000B59DB04C22002109A805F0FBFD202279
:10061000002101A805F0F6FD022002F075FD00237F
:100620000093264BDA6A22F00102DA62DB6A03F0F9
:1006300001030093224A936923F4404343F40043A7
:100640009361936903F440430093009B1C4B9B69A7
:1006500013F4005FFAD0032309934FF4A0230A9305
:1006600001220C9240230D930223129313931492B0
:100670001822159216930422179218930C2319939B
:1006800000231A931B9309A800F06AFE88B93F2340
:100690000193002302930393049305930693079316
:1006A0000893012101A801F079FA20B91DB05DF885
:1006B00004FBFFF7A3FFFFF7A1FF00BF00040058F2
:1006C0000048025808B502F051FDFFF799FF00F00D
:1006D0000DF800F0D5F800F0A5F900F021FA05F0CA
:1006E000A7F900F0BDF805F0B5F9FEE72DE9F041F6
:1006F0008CB000240794089409940A940B944E4BF0
:10070000D3F8E02042F00402C3F8E020D3F8E02060
:1007100002F004020092009AD3F8E02042F0800236
:10072000C3F8E020D3F8E02002F080020192019AA1
:10073000D3F8E02042F00102C3F8E020D3F8E02033
:1007400002F001020292029AD3F8E02042F0020283
:10075000C3F8E020D3F8E02002F002020392039AEB
:10076000D3F8E02042F00802C3F8E020D3F8E020FC
:1007700002F008020492049AD3F8E02042F040020A
:10078000C3F8E020D3F8E02002F040020592059A79
:10079000D3F8E02042F01002C3F8E020D3F8E030B4
:1007A00003F010030693069BDFF8A480224644F270
:1007B0000101404602F0A2FC204F22464FF4806126
:1007C000384602F09BFC1E4E22460221304602F0C3
:1007D00095FC4FF4005307930894099407A919480E
:1007E00002F08EFB44F2010307930125089509945A
:1007F0000A9407A9404602F083FB4FF480630793F5
:10080000089509940A9407A9384602F079FB8023D9
:1008100007930D4B0893099407A90C4802F070FB4D
:1008200002230793089509940A9407A9304602F019
:1008300067FB0CB0BDE8F08100440258000C025880
:100840000010025800080258000011110018025848
:100850000004025808B5012005F076F9FBE7000016
:1008600008B5044A0021044805F010F9034B18604C
:1008700008BD00BF3862000855080008F0000020DD
:1008800010B51448144B0360144B00221A708021D9
:100890005970E1219970DA701A715A71436001231D
:1008A00003720F4BC3600F4B036140F2F45343617B
:1008B00000F0BAFC58B90C4C34220021204605F057
:1008C000A1FC212323604FF44033636110BDFFF787
:1008D00095FEF0E73001002000800240F400002087
:1008E0007400002014000020FC00002070B58CB0C3
:1008F00000230793089309930A930B930268434BD1
:100900009A4201D00CB070BD414BD3F8D82042F4CC
:100910000042C3F8D820D3F8D82002F40042009255
:10092000009AD3F8D82042F48032C3F8D820D3F804
:10093000D82002F480320192019AD3F8D82042F4F0
:100940000032C3F8D820D3F8D82002F40032029243
:10095000029AD3F8E02042F00402C3F8E020D3F872
:10096000E02002F004020392039AD3F8E02042F060
:100970000102C3F8E020D3F8E02002F00102049263
:10098000049AD3F8E02042F00202C3F8E020D3F842
:10099000E02002F002020592059AD3F8E02042F02E
:1009A0004002C3F8E020D3F8E03003F040030693A0
:1009B000069B32230793022608960B250B9507A961
:1009C000144802F09DFA86230793089600240994A0
:1009D0000A940B9507A9104802F092FA4FF40053BD
:1009E0000793089609940A940B9507A90B4802F0FF
:1009F00087FA4FF420530793089609940A940B95AD
:100A000007A9074802F07CFA7CE700BF008002409B
:100A1000004402580008025800000258000402581E
:100A20000018025808B51748174B03604FF4E1331C
:100A3000436000238360C36003610C2242618361D1
:100A4000C36103624362836203F0B3F970B90021AA
:100A50000C4803F026FA60B900210A4803F046FA70
:100A600050B9084803F0FEF948B908BDFFF7C6FDC4
:100A7000EDE7FFF7C3FDEFE7FFF7C0FDF1E7FFF795
:100A8000BDFDF2E7B80100200048004010B5B6B047
:100A90000446002131913291339134913591BC2239
:100AA00002A805F0AFFB22681A4B9A4201D036B07B
:100AB00010BD0223029302A801F036FB38BB164B8F
:100AC000D3F8E82042F48022C3F8E820D3F8E820E5
:100AD00002F480220092009AD3F8E02042F008024B
:100AE000C3F8E020D3F8E03003F008030193019B42
:100AF0004FF44073319302233293002333933493A2
:100B00000723359331A9054802F0FAF9CFE7FFF73B
:100B100075FDD4E70048004000440258000C02581C
:100B200008B50C480C4B0360092343600222C260E5
:100B30000023036182610122C26103624362826217
:100B4000C262036303F0F7F900B908BDFFF756FD71
:100B5000FBE700BF480200200000084070B5B6B0B7
:100B60000446002131913291339134913591BC2268
:100B700002A805F047FB2268234B9A4201D036B009
:100B800070BD4FF4802302934FF48013239302A887
:100B900001F0CAFA002833D102F0E0FA1B4CD4F875
:100BA000E03043F00103C4F8E030D4F8E03003F063
:100BB00001030093009B4FF4C853319302233293F7
:100BC0000025339534950A233593114E31A93046CB
:100BD00002F096F94FF4007331933295339531A9B1
:100BE000304602F08DF9D4F8D83043F00063C4F8F1
:100BF000D830D4F8D83003F000630193019BBEE7EE
:100C0000FFF7FCFCC8E700BF0000084000440258A2
:100C100000000258FEE7FEE7FEE7FEE7FEE770474A
:100C200008B5024802F050FB08BD00BF5006002086
:100C300000B583B00A4BD3F8F42042F00202C3F8A7
:100C4000F420D3F8F43003F002030193019B002257
:100C50000F216FF0010000F065F803B05DF804FBB0
:100C6000004402580F2801D90120704710B58AB0FE
:100C7000044600220146362000F054F8362000F0E9
:100C800087F81A4B1C601A4BD3F8E82042F0100288
:100C9000C3F8E820D3F8E83003F010030093009B7A
:100CA00001A902A801F00AF9079BBBB901F0E2F81B
:100CB00003461048A0FB03239B0C013B0E480F4A40
:100CC000026040F2E732C260436000230361836048
:100CD00002F04AFC30B101200AB010BD01F0CAF8A0
:100CE0004300E6E7044802F0A7FAF5E70400002015
:100CF0000044025883DE1B435006002000100040D1
:100D00000649CB6823F4E0631B041B0C000200F4CB
:100D1000E0600343024A1A43CA60704700ED00E0F6
:100D20000000FA0500B5174BDB68C3F30223C3F1DB
:100D3000070CBCF1040F28BF4FF0040C03F1040EA4
:100D4000BEF1060F14D9033B4FF0FF3E0EFA0CFC28
:100D500021EA0C0199400EFA03F322EA0303194336
:100D6000002807DB0901C9B2074B19545DF804FBE1
:100D70000023E9E700F00F000901C9B2034B195441
:100D8000F4E700BF00ED00E000E400E014ED00E057
:100D9000002807DB00F01F02400901239340024AAC
:100DA00042F82030704700BF00E100E030B48B68AB
:100DB0000A6813430A7943EAC2630A7B43EAC253CF
:100DC0004A7B43EA82538A7B43EA4253CA7B43EA23
:100DD00002530A7C002A40F0B0804FF400221343F3
:100DE0004A7C002A40F0AB804FF4003213438A7CE7
:100DF00043EA02434A6913438A6913430A7F43EA79
:100E000002334A7F43EAC2238A7F002A40F0998056
:100E10004FF480621343CA7F43EA422391F82020B3
:100E2000002A40F090804FF4807213434A6A1343C3
:100E300091F8282043EA0213CA6A1343046822681F
:100E400022F07F4222F47B0222F4FE4222F07C0256
:100E500013432360CA6B91F838301B0643EA4263A0
:100E600091F8302043EA824391F8312043EA42432B
:100E700091F83220002A68D14FF4803213434A6B34
:100E800013430468626822F07C5222F4EF2222F4B9
:100E9000FF6222F007021343636091F840204B6C1D
:100EA00043EA02220468E5682B4B2B401343E360BE
:100EB00091F854200B6D43EA420391F84C20002A2C
:100EC00045D1802213438A6C43EA02430468226FAF
:100ED00022F0F2021204120C1343236791F85630E9
:100EE00091F8552043EA42020468D4F8903023F088
:100EF00003031343C4F890300268D2F8003D23F096
:100F000072038C6D2343C2F8003DCB6D91F86020D5
:100F1000FAB94022134391F8612043EA021391F891
:100F2000622043EAC2030168D1F8302D22F07B022F
:100F30001343C1F8303D30BC704700224FE7002218
:100F400054E7002266E700226FE7002296E70022BE
:100F5000B8E70022DEE700BFF0FEFFFF10B4026832
:100F600002F580521468244B23400C68234313601D
:100F70000A798B6843EA02330A7B43EAC232036888
:100F800003F5805CDCF804401C4B23401343CCF891
:100F9000043091F80DC00B6A43EA0C4C026802F56C
:100FA0008052D2F80041164B234043EA0C03C2F8AA
:100FB00000310B690A7D43EA02134A7F43EA023299
:100FC000036803F5805CDCF804410E4B23401343B7
:100FD000CCF804310A7F896941EAC271026802F5DE
:100FE0008052D2F80801084B03400B43C2F8083185
:100FF0005DF8044B704700BFFD87FFFFFE2FFFFF2A
:1010000000C0FEFFEFEFC0FFFFFFC07F70B5A2B0D2
:10101000064601258DF83350002412948DF8414086
:101020008DF843408DF828508DF856508DF8325089
:101030008DF84C408DF884504FF400530F938DF889
:101040005C4018948DF885408DF886404FF4C3635A
:1010500016938DF830400B948DF835508DF836404E
:101060008DF840401D941B9414948DF864408DF8C5
:101070007A408DF84250202320938DF844508DF80B
:1010800055404FF0405309934FF480430E938DF831
:10109000314002231F938DF878408DF879408DF808
:1010A00054408DF834501A948DF8705009A9FFF708
:1010B0007DFE8DF80450029500948DF81C408DF84B
:1010C0000D408DF80C404FF4001306938DF814403A
:1010D00004938DF81D404FF406730893694630461B
:1010E000FFF73CFF22B070BD10B4002210E0C468CE
:1010F00002EB42034FEAC30C04EBC303002144F8A4
:101100000C1059609960D960911D40F8213001326E
:10111000032AECD900238362036803F5805303227A
:10112000C3F82C21C268036803F58053C3F8142167
:10113000C268036803F58053C3F820215DF8044BAF
:10114000704710B4002114E0046901EB41034FEA39
:10115000C30C04EBC303002244F80C205A609A60CD
:10116000DA601A615A6101F1100200EB82025360E9
:1011700001310329E8D9002343658365C3654366CC
:101180000366036803F580530322C3F83021026924
:10119000036803F58053C3F81C21036903F1480277
:1011A000036803F58053C3F828215DF8044B7047AA
:1011B00038B505460368D3F8004224F4706400F0A3
:1011C00037FE114B0344114A934205D244F4007494
:1011D0002B68C3F8004238BD0D4B03440D4A9342BF
:1011E00002D844F44074F3E70B4B03440B4A934298
:1011F000EED30B4B03440B4A934202D844F4807461
:10120000E6E744F48064E3E700D3CEFEC0E1E40007
:1012100040F1E9FD3F787D0100796CFC005A6202E3
:10122000001F0AFA7FF0FA02002800F0908030B523
:1012300083B00446C36E8BB32323E366454BD3F8D8
:10124000F42042F00202C3F8F420D3F8F43003F0A3
:1012500002030193019B237A1BBB002001F0E0FFF6
:10126000236803F580531A6842F001021A6001F006
:10127000B7FF0546236803F580531B6813F0010F81
:1012800014D001F0ADFF401BB0F5FA7FF2D9042372
:101290006367E023E366012003B030BDFFF726FB60
:1012A000CAE74FF4000001F0BBFFD9E72046FFF783
:1012B0007FFF00F0BDFD284BA3FB00239B0C2268A1
:1012C000013BC2F8DC302046FFF7A0FE226802F5A1
:1012D0008052D2F8003123F4E01343F40023C2F823
:1012E0000031626912F0030F04D001206067E0232F
:1012F000E366D1E7216801F58051D1F80801174B69
:10130000034043EA4203C1F808312046FFF7ECFEF0
:101310002046FFF716FF626851791379226843EA85
:101320000123C2F800336268D17893781B0443EA42
:101330000163517843EA0123117822680B43C2F814
:101340000433002060671023E3662367A4E70120CD
:10135000704700BF0044025883DE1B430180FFFF3B
:10136000002800F0028338B50446036813F0010F2B
:1013700025D09C4A136903F03803926A102B15D0CC
:10138000182B0FD06368B3F5803F3FD0002B53D1AB
:10139000944B1A6822F480321A601A6822F4802270
:1013A0001A6038E002F00302022AEBD18D4B1B6871
:1013B00013F4003F03D06368002B00F0D882236849
:1013C00013F0020F00F08B80864A1369926A13F0C3
:1013D00038035AD0182B55D0E368002B00F0C88092
:1013E00080490A6822F0190213430B6001F0F8FEED
:1013F00005467C4B1B6813F0040F40F0978001F00A
:10140000EFFE401B0228F4D90320B7E2754A1368A7
:1014100043F48033136063682BB301F0E1FE0546AB
:10142000704B1B6813F4003FC9D101F0D9FE401B7B
:101430006428F5D90320A1E2B3F5A02F09D0694BA8
:101440001A6822F480321A601A6822F480221A6024
:10145000E1E7644B1A6842F480221A601A6842F489
:1014600080321A60D7E701F0BBFE05465D4B1B6872
:1014700013F4003FA3D001F0B3FE401B6428F5D95C
:1014800003207BE212F0030FA6D1564B1B6813F02A
:10149000040F03D0E368002B00F06B8201F0BAFE6A
:1014A00041F20303984212D82269402A07D04D49DD
:1014B0004B6823F47C3343EA02334B600FE0494A24
:1014C000536823F47C3343F40033536007E0454A08
:1014D000536823F0FE43216943EA016353602368A4
:1014E00013F0100F00F088803E4A136903F03803B0
:1014F000926A082B54D0182B4ED0E369002B00F0D1
:10150000B880384A136843F08003136001F068FE26
:101510000546344B1B6813F4807F40F0888001F04F
:101520005FFE401B0228F4D9032027E201F072FE7F
:1015300041F20303984212D82269402A07D0294970
:101540004B6823F47C3343EA02334B60C7E7254AF8
:10155000536823F47C3343F400335360BFE7214ADC
:10156000536823F0FE43216943EA01635360B6E701
:101570001C4A136823F00103136001F031FE054695
:10158000184B1B6813F0040FA9D001F029FE401B73
:101590000228F5D90320F1E102F00302012AACD1BF
:1015A000104B1B6813F4807F03D0E369802B40F05D
:1015B000E28101F02FFE41F20303984214D8226A1F
:1015C000202A07D007494B6823F0F84343EA826397
:1015D0004B6011E0034A536823F0F84343F0804323
:1015E000536009E0004402589A4AD36823F07C53C0
:1015F000216A43EA0163D360236813F0080F60D0C7
:101600006369002B49D0934A536F43F0010353673A
:1016100001F0E6FD05468F4B5B6F13F0020F50D1D2
:1016200001F0DEFD401B0228F5D90320A6E101F000
:10163000F1FD41F20303984212D8226A202A07D012
:1016400084494B6823F0F84343EA82634B60D3E755
:10165000804A536823F0F84343F080435360CBE75C
:101660007C4AD36823F07C53216A43EA0163D36048
:10167000C2E7784A136823F08003136001F0B0FDDD
:101680000546744B1B6813F4807FB5D001F0A8FDAC
:10169000401B0228F5D9032070E16E4A536F23F0F6
:1016A0000103536701F09CFD05466A4B5B6F13F025
:1016B000020F06D001F094FD401B0228F5D903204B
:1016C0005CE1236813F0200F29D0A3699BB1614A24
:1016D000136843F48053136001F082FD05465D4BAF
:1016E0001B6813F4005F1AD101F07AFD401B022839
:1016F000F5D9032042E1574A136823F4805313605D
:1017000001F06EFD0546534B1B6813F4005F06D0D5
:1017100001F066FD401B0228F5D903202EE1236865
:1017200013F0040F21D1636A002B00F02681494A8F
:10173000126902F03802182A00F0EE80022B75D0F0
:10174000444A136823F08073136001F049FD044696
:10175000404B1B6813F0007F00F0DC8001F040FD7F
:10176000001B0228F4D9032008E13B4A136843F424
:101770008073136001F034FD0546374B1B6813F48A
:10178000807F06D101F02CFD401B6428F5D9032091
:10179000F4E0A368012B0AD00BBB2E4B1A6F22F08A
:1017A00001021A671A6F22F004021A6704E0294A3C
:1017B000136F43F001031367A36833B301F010FD07
:1017C0000546244B1B6F13F0020FACD101F008FD4E
:1017D000401B41F288339842F3D90320CEE0052B19
:1017E00009D01C4B1A6F22F001021A671A6F22F0FF
:1017F00004021A67E0E7174B1A6F42F004021A67F7
:101800001A6F42F001021A67D6E701F0E9FC0546BB
:10181000104B1B6F13F0020F85D001F0E1FC401B51
:1018200041F288339842F3D90320A7E0094A1368AC
:1018300023F08073136001F0D3FC0546054B1B6851
:1018400013F0007F0AD001F0CBFC401B0228F5D931
:10185000032093E000440258004802584F4B996A15
:101860004F4A0A40A16AE06A41EA00110A439A62BB
:10187000226B013AC2F30802616B0139490289B255
:101880000A43A16B0139090401F4FE010A43E16B2B
:101890000139090601F0FE410A431A63DA6A22F0AF
:1018A0000102DA62596B3F4A0A40A16C42EAC10266
:1018B0005A63DA6A22F00C02216C0A43DA62DA6AAD
:1018C00022F00202616C0A43DA62DA6A42F4803280
:1018D000DA62DA6A42F40032DA62DA6A42F48022C8
:1018E000DA62DA6A42F00102DA621A6842F0807261
:1018F0001A6001F075FC0446284B1B6813F0007F4A
:1019000006D101F06DFC001B0228F5D9032035E05B
:10191000002033E0002031E0204A916A106B012B57
:101920002DD001F00303A26A93422AD1C1F305111D
:10193000E36A994227D1C0F30802236B013B9A4224
:1019400023D1C0F34622636B013B9A421FD1C0F3FF
:101950000642A36B013B9A421BD1C0F30660E36BC6
:10196000013B984217D1002008E001207047012078
:1019700004E0012002E0012000E0002038BD012049
:10198000FCE70120FAE70120F8E70120F6E7012053
:10199000F4E70120F2E70120F0E700BF004402581D
:1019A0000CFCFFFF0700FFFF744B1B6903F03803BB
:1019B000102B00F0DE80182B10D00BB17048704750
:1019C0006E4B1B6813F0200F00F0D5806B4B18682E
:1019D000C0F3C1006B4B23FA00F0704710B4674AA4
:1019E000916A01F00301946AC4F30510D36A03F00D
:1019F000010C536BC3F3CC030CFB03F307EE903ADB
:101A0000F8EE677A14F47C7F00F09380012965D0AA
:101A1000022900F09180E1B107EE100AF8EE476A62
:101A20009FED596A86EE267A544B1B6BC3F308036D
:101A300006EE903AF8EE666A9FED546A67EE867A93
:101A400076EEA77AF7EE006A77EEA67A27EE277A87
:101A500060E0136813F0200F23D011461268C2F320
:101A6000C102484BD34007EE103AF8EE476A07EE42
:101A7000100AB8EE476A86EE867A0B6BC3F308034A
:101A800006EE903AF8EE666A9FED406A67EE867A57
:101A900076EEA77AF7EE006A77EEA67A27EE277A37
:101AA00038E007EE100AF8EE476A9FED396A86EED5
:101AB000267A324B1B6BC3F3080306EE903AF8EE1E
:101AC000666A9FED326A67EE867A76EEA77AF7EE5F
:101AD000006A77EEA67A27EE277A1BE007EE100A57
:101AE000F8EE476A9FED286A86EE267A234B1B6B39
:101AF000C3F3080306EE903AF8EE666A9FED236A98
:101B000067EE867A76EEA77AF7EE006A77EEA67A27
:101B100027EE277A194B1B6BC3F34623013307EEDD
:101B2000903AF8EE677AC7EE276AFCEEE67A17EE8F
:101B3000900A5DF8044B704707EE100AF8EE476A0A
:101B40009FED146A86EE267A0C4B1B6BC3F30803D9
:101B500006EE903AF8EE666A9FED0C6A67EE867ABA
:101B600076EEA77AF7EE006A77EEA67A27EE277A66
:101B7000D0E7094870470348704700BF0044025847
:101B800000093D000090D0030024744A0000003991
:101B90000024744C0024F44A00127A00002800F05B
:101BA000328170B50D4604469B4B1B6803F00F0352
:101BB0008B420BD2984A136823F00F030B43136038
:101BC000136803F00F038B4240F01F81236813F06A
:101BD000040F0CD02269914B9B6903F070039A4269
:101BE00005D98E498B6923F070031A438A612368F3
:101BF00013F0080F0CD06269884BDB6903F07003A7
:101C00009A4205D98549CB6923F070031A43CA610A
:101C1000236813F0100F0CD0A269804BDB6903F42A
:101C2000E0639A4205D97D49CB6923F4E0631A4306
:101C3000CA61236813F0200F0CD0E269774B1B6A4E
:101C400003F070039A4205D974490B6A23F07003BC
:101C50001A430A62236813F0020F0CD0E2686F4B3C
:101C60009B6903F00F039A4205D96C498B6923F0F5
:101C70000F031A438A61236813F0010F41D0674AAA
:101C8000936923F47063A1680B4393616368022B2B
:101C90000AD0032B27D0012B2CD0604A126812F0F7
:101CA000040F06D10120ADE0126812F4003F00F0ED
:101CB000AE805A490A6922F0070213430B6101F012
:101CC0008FFA0646554B1B6903F038036268B3EB85
:101CD000C20F16D001F084FA801B41F2883398427B
:101CE000F0D903208EE04D4A126812F0007FE0D157
:101CF000012087E0494A126812F4807FD9D101207F
:101D000080E0236813F0020F0CD0E268434B9B691C
:101D100003F00F039A4205D240498B6923F00F0369
:101D20001A438A613C4B1B6803F00F03AB420AD98C
:101D3000394A136823F00F032B431360136803F031
:101D40000F03AB4265D1236813F0040F0CD0226956
:101D5000324B9B6903F070039A4205D22F498B697D
:101D600023F070031A438A61236813F0080F0CD024
:101D700062692A4BDB6903F070039A4205D2274956
:101D8000CB6923F070031A43CA61236813F0100F64
:101D90000CD0A269214BDB6903F4E0639A4205D2BF
:101DA0001E49CB6923F4E0631A43CA61236813F028
:101DB000200F0CD0E269194B1B6A03F070039A42A2
:101DC00005D216490B6A23F070031A430A62FFF723
:101DD000EBFD12498B69C3F30323114AD35C03F073
:101DE0001F03D8408B6903F00F03D35C03F01F037C
:101DF00020FA03F30B4A13600B4B18600B4B186867
:101E0000FEF730FF70BD012070470120FAE7012086
:101E1000F8E70120F6E700BF002000520044025816
:101E2000846200080C00002008000020040000204C
:101E300008B5FFF7B9FD0B4A9369C3F303230A49B9
:101E4000CB5C03F01F0320FA03F3926902F00F0248
:101E5000885C00F01F0023FA00F0044A1060044A76
:101E6000136008BD00440258846200080C00002082
:101E70000800002008B5FFF7DBFF054BDB69C3F363
:101E80000213044AD35C03F01F03D84008BD00BF0F
:101E9000004402588462000808B5FFF7C9FF054BEB
:101EA000DB69C3F30223044AD35C03F01F03D84069
:101EB00008BD00BF00440258846200083F2303604D
:101EC000114B1A6902F0070242609A6902F47062CB
:101ED00082609A6902F00F02C2609A6902F0700291
:101EE0000261DA6902F070024261DA6902F4E062CA
:101EF00082611B6A03F07003C361044B1B6803F02B
:101F00000F030B60704700BF0044025800200052CE
:101F1000404B9B6A03F00303032B79D070B5054651
:101F20000E463C4A136823F08063136001F058F9B1
:101F30000446384B1B6813F0006F06D001F050F9CF
:101F4000031B022BF5D9032070BD324B9A6A22F491
:101F50007C32296842EA01329A626A68013AC2F325
:101F60000802A9680139490289B20A43E9680139BE
:101F7000090401F4FE010A4329690139090601F047
:101F8000FE410A439A63DA6A22F0C00269690A4391
:101F9000DA62DA6A22F02002A9690A43DA62DA6AAE
:101FA00022F01002DA62D96B1B4A0A40E96942EA60
:101FB000C102DA63DA6A42F01002DA62C6B91A467E
:101FC000DB6A43F40023D362124A136843F0806350
:101FD000136001F005F904460E4B1B6813F0006F07
:101FE00014D101F0FDF8001B0228F5D90320ABE75E
:101FF000012E05D0074AD36A43F40013D362E3E706
:10200000044AD36A43F48013D362DDE700209BE7E0
:1020100001207047004402580700FFFF404B9B6AB5
:1020200003F00303032B79D070B505460E463C4AF6
:10203000136823F08053136001F0D2F80446384B44
:102040001B6813F0005F06D001F0CAF8031B022BD7
:10205000F5D9032070BD324B9A6A22F07C72296850
:1020600042EA01529A626A68013AC2F30802A96818
:102070000139490289B20A43E9680139090401F4C6
:10208000FE010A4329690139090601F0FE410A43AC
:102090001A64DA6A22F4406269690A43DA62DA6A27
:1020A00022F40072A9690A43DA62DA6A22F48072C1
:1020B000DA62596C1B4A0A40E96942EAC1025A6471
:1020C000DA6A42F48072DA62C6B91A46DB6A43F40D
:1020D0008003D362124A136843F08053136001F007
:1020E0007FF804460E4B1B6813F0005F14D101F01B
:1020F00077F8001B0228F5D90320ABE7012E05D0A5
:10210000074AD36A43F08073D362E3E7044AD36A91
:1021100043F40003D362DDE700209BE70120704712
:10212000004402580700FFFFF8B50446036813F0A7
:10213000006F30D0436EB3F5001F26D00ED8EBB140
:10214000B3F5801F07D102210430FFF7E1FE0546F9
:1021500045B12E4621E0012635461EE0B3F5401F6D
:1021600009D10025954A136D23F44013616E0B438A
:102170001365002611E0012635460EE08F4AD36A2A
:1021800043F40033D3620025ECE702212430FFF74B
:1021900045FF0546DCE700263546236813F4807FBB
:1021A00014D0636D042B30D8DFE803F00322280835
:1021B0000800824AD36A43F40033D36245BB7F4AA6
:1021C000136D23F00703616D0B431365236813F44C
:1021D000007F2FD0A36D802B49D01ED8002B40D07C
:1021E000402B17D10021201DFFF792FE054619E074
:1021F0000021201DFFF78CFE0546DFE7002104F1DA
:102200002400FFF70BFF0546D8E701263546DDE73A
:102210002E46DBE7012635460CE0C02B02D0B3F595
:10222000807F1BD155BB654A136D23F4E073A16D0C
:102230000B431365236813F4806F45D0D4F8A430A2
:10224000B3F5800F38D01ED883B3B3F5001F17D174
:102250000021201DFFF75CFE05461AE001263546E9
:10226000E8E7564AD36A43F40033D362DAE7002141
:1022700004F12400FFF7D2FE0546D3E72E46D9E746
:102280000126354620E0B3F5C00F02D0B3F5000FAC
:1022900009D1C5B9494A936D23F46003D4F8A41059
:1022A0000B43936510E0012635460DE0434AD36A9F
:1022B00043F40033D362ECE7002104F12400FFF77C
:1022C000ADFE0546E5E72E46236813F4006F23D0E4
:1022D000D4F8A830B3F1007F41D00DD8002B38D00E
:1022E000B3F1807F05D10021201DFFF711FE0546C7
:1022F00008E0012635460FE0B3F1407F02D0B3F18C
:10230000806F23D1002D31D12C4A936D23F0E063EF
:10231000D4F8A8100B439365236813F0007F2ED0E8
:10232000A36C202B3FD026D833B1102B20D1234AC9
:10233000D36A43F40033D362002D3AD11F4AD36CE1
:1023400023F03003A16C0B43D36418E0012635461B
:10235000E2E71A4AD36A43F40033D362D2E700219A
:1023600004F12400FFF75AFE0546CBE72E46D3E7DB
:102370000126354603E0302BDED0012635462368A2
:1023800013F4805F2BD0E36DB3F5005F4CD017D80A
:10239000002B43D0B3F5805F0DD10021201DFFF746
:1023A000B7FD054612E00221201DFFF7B1FD0546ED
:1023B000C2E72E46E3E70126354610E00044025806
:1023C000B3F5405F02D0B3F5804F24D1002D32D158
:1023D000754A136D23F4E043E16D0B4313652368E5
:1023E00013F4005F37D0236EB3F5003F51D027D8E8
:1023F0003BB1B3F5803F20D10121201DFFF788FDBF
:102400000546002D4CD1684A136D23F4E023216E5C
:102410000B4313651FE001263546E0E7624AD36AA5
:1024200043F40033D362D1E7002104F12400FFF725
:10243000F5FD0546CAE72E46D1E7012635460AE0F6
:10244000B3F5802FDDD0B3F5A02FDAD0B3F5403F40
:10245000D7D001263546236813F4804F30D0D4F806
:10246000AC30B3F1005F44D01FD83BB1B3F1805F13
:1024700018D10121201DFFF74BFD0546002D3FD14E
:10248000494A936D23F0E043D4F8AC100B439365B5
:1024900016E0012104F12400FFF7C0FD0546B0E776
:1024A0002E46D8E7012635460AE0B3F1804FE5D045
:1024B000B3F1A04FE2D0B3F1405FDFD00126354643
:1024C000236813F4004F09D0E36EB3F1805F19D095
:1024D000B3F1005F24D0D3B101263546236813F051
:1024E000807F32D0636C032B59D8DFE803F02621BC
:1024F0005226012104F12400FFF790FD0546BDE7B7
:102500002E46DDE7284AD36A43F40033D3626DB91F
:10251000254A136D23F04053E16E0B431365DDE74D
:102520000121201DFFF7F4FC0546F0E72E46D5E714
:102530001D4AD36A43F40033D3629DBB1A4AD36C5D
:1025400023F00303616C0B43D364236813F4800FFF
:102550002CD1236813F0010F00F0A380A36F282B68
:1025600000F29D80DFE803F08B9B9B9B9B9B9B9BDA
:10257000869B9B9B9B9B9B9B949B9B9B9B9B9B9BC7
:102580008B9B9B9B9B9B9B9B8B9B9B9B9B9B9B9BBB
:102590008B000221201DFFF7BBFC0546CDE701267D
:1025A0003546D2E72E46D0E7004402588F4A1368DA
:1025B00043F48073136000F013FE07468B4B1B68D7
:1025C00013F4807F05D100F00BFEC01B6428F5D901
:1025D0000325002D4AD1864B1B6FD4F8B020534001
:1025E00013F4407F0CD0824B1A6F22F44072196FA3
:1025F00041F480311967196F21F4803119671A6726
:10260000D4F8B030B3F5807F15D08DBBD4F8B0309E
:1026100003F44072B2F5407F1ED0754A136923F46B
:102620007C53136172490B6FD4F8B020C2F30B02D4
:1026300013430B678DE700F0D3FD07466C4B1B6F10
:1026400013F0020FE1D100F0CBFDC01B41F2883343
:102650009842F3D90325D8E76548026922F47C52F1
:10266000644901EA131313430361DBE72E4670E765
:102670002E466EE70121201DFFF74AFC0546E5B90D
:102680005B4A536D23F03803A16F0B43536508E099
:10269000012104F12400FFF7C1FC0546EFE7012604
:1026A0003546236813F0020F16D0636F052B27D829
:1026B000DFE803F00A051F0A0A0A2E46F1E70121A6
:1026C000201DFFF725FC0546EDB9494A536D23F05F
:1026D0000703616F0B435365236813F0040F22D087
:1026E000D4F89030052B43D8DFE803F0140F3B14E7
:1026F0001414012104F12400FFF790FC0546E3E7E0
:1027000001263546E8E72E46E6E70121201DFFF7C2
:10271000FFFB05467DBB364A936D23F00703D4F8D3
:1027200090100B439365236813F0200F33D0D4F837
:102730008C30B3F1005F4CD022D83BB1B3F1805F55
:102740001BD10021201DFFF7E3FB0546002D47D1DB
:10275000274A536D23F0E043D4F88C100B435365A4
:1027600019E0012104F12400FFF758FC0546D1E7E8
:1027700001263546D7E72E46D5E7012635460AE03D
:10278000B3F1804FE2D0B3F1A04FDFD0B3F1405F9F
:10279000DCD001263546236813F0400F37D0D4F83B
:1027A0009830B3F5006F52D026D83BB1B3F5806FA7
:1027B00018D10021201DFFF7ABFB0546002D4DD1A0
:1027C0000B4A936D23F4E053D4F898100B439365B0
:1027D0001DE0022104F12400FFF720FC0546B5E7C7
:1027E0002E46D8E70126354611E000BF00480258C2
:1027F00000440258CFFFFF00B3F5805FDED0B3F591
:10280000A05FDBD0B3F5406FD8D0012635462368F2
:1028100013F0800F32D0D4F89C30B3F5804F00F025
:102820009D8020D83BB1B3F5005F19D10021201D58
:10283000FFF76EFB0546002D40F09780A54A936D8B
:1028400023F46043D4F89C100B43936516E00221F7
:1028500004F12400FFF7E2FB0546AFE72E46D6E77A
:10286000012635460AE0B3F5004FE4D0B3F5204F1A
:10287000E1D0B3F5C04FDED001263546236813F012
:10288000080F0CD0D4F88030B3F5805F6FD0914A38
:10289000536D23F44053D4F880100B4353652368E1
:1028A00013F0100F0CD0D4F89430B3F5807F67D0BC
:1028B000884A936D23F44073D4F894100B439365C6
:1028C000236813F4002F0BD0D4F8A030B3F5803F69
:1028D0006ED0B3F5003F61D0002B5AD001263546AB
:1028E000236813F4802F0CD0D4F88430B3F5001F84
:1028F00076D0B3F5401F69D0B3F5801F61D00126B3
:102900003546236813F4803F07D0E36C002B70D06A
:10291000B3F5803F7BD001263546236813F0005F76
:102920007DD1236813F4003F00F08680E36FB3F598
:10293000807F00F0C6807CD9B3F5007F03D0B3F56B
:10294000407F40F0BC80002D40F0C180614A536D53
:1029500023F44073E16F0B4353656DE0022104F1F2
:102960002400FFF75BFB054665E72E4686E702215C
:1029700004F12400FFF752FB002888D0012686E7E7
:10298000022104F12400FFF749FB002890D0012622
:102990008EE70021201DFFF7BBFA05467DB94D4AA1
:1029A000936D23F44033D4F8A0100B43936597E75D
:1029B000022104F12400FFF731FB0546EEE72E4625
:1029C0008EE7444AD36A43F40033D3627DB9414A67
:1029D000536D23F44013D4F884100B43536590E7F0
:1029E000012104F12400FFF719FB0546EEE72E460E
:1029F00087E7384AD36A43F40033D3626DB9354A66
:102A0000D36C23F48033E16C0B43D36485E702215C
:102A1000201DFFF77DFA0546F0E72E467DE70221EF
:102A200004F12400FFF7FAFA00283FF47AAF0126F8
:102A300077E7002B87D00126236813F4801F06D088
:102A4000244A136D23F00043216F0B431365236861
:102A500013F0805F07D01F4A136923F48043D4F832
:102A6000B4100B431361236813F4001F06D0194AF6
:102A7000136D23F08073A16E0B431365236813F06D
:102A8000804F09D0134B1A6922F400421A611A6967
:102A9000D4F8B8100A431A612368002B1CDB2368A2
:102AA00013F4000F07D00B4A536D23F44003D4F8FE
:102AB00088100B43536506B101263046F8BD012648
:102AC000BAE7044AD36A43F40033D3623BE72E46A5
:102AD000B2E700BF00440258034AD36C23F04053CE
:102AE000216D0B43D364DAE70044025808B5FFF7C1
:102AF0009FF9054B1B6AC3F30213044AD35C03F02E
:102B00001F03D84008BD00BF00440258846200087B
:102B100010B5774A916A946AC4F3053ED36AC3F349
:102B2000001CD36BC3F3CC030CFB03F314F47C3F06
:102B300000F0D88001F0030107EE903AF8EE677AD2
:102B4000012965D0022900F0B080E1B107EE10EA5A
:102B5000B8EE477A9FED676AC6EE076A644B9B6BD7
:102B6000C3F3080307EE103AB8EE477A9FED626AA6
:102B700067EE867A77EE277AB7EE007A77EE877A75
:102B800066EEA76A60E0136813F0200F23D01146A9
:102B90001268C2F3C102594BD34007EE103AB8EEA7
:102BA000477A06EE90EAB8EE666AC7EE066A8B6B65
:102BB000C3F3080307EE103AB8EE477A9FED4E6A6A
:102BC00067EE867A77EE277AB7EE007A77EE877A25
:102BD00066EEA76A38E007EE10EAB8EE477A9FED96
:102BE000486AC6EE076A424B9B6BC3F3080307EEC5
:102BF000103AB8EE477A9FED406A67EE867A77EE34
:102C0000277AB7EE007A77EE877A66EEA76A1BE03E
:102C100007EE10EAB8EE477A9FED366AC6EE076A0D
:102C2000334B9B6BC3F3080307EE103AB8EE477AB9
:102C30009FED316A67EE867A77EE277AB7EE007AF3
:102C400077EE877A66EEA76A294A936BC3F3462329
:102C500007EE103AB8EE477AB7EE006A37EE067A1A
:102C6000C6EE877AFCEEE77AC0ED007A936BC3F389
:102C7000064307EE103AB8EE477A37EE067AC6EE0C
:102C8000877AFCEEE77AC0ED017A936BC3F30663B3
:102C900007EE903AF8EE677A77EE867A86EEA77AB4
:102CA000BCEEC77A80ED027A10BD07EE10EAB8EEEE
:102CB000477A9FED146AC6EE076A0D4B9B6BC3F310
:102CC000080307EE103AB8EE477A9FED0B6A67EEFD
:102CD000867A77EE277AB7EE007A77EE877A66EE15
:102CE000A76AB1E70023036043608360DCE700BFAD
:102CF000004402580024744A000000390090D003B8
:102D00000024744C0024F44A10B5774A916A946AFE
:102D1000C4F3055ED36AC3F3002C536CC3F3CC0336
:102D20000CFB03F314F07C7F00F0D88001F003016A
:102D300007EE903AF8EE677A012965D0022900F093
:102D4000B080E1B107EE10EAB8EE477A9FED676A0E
:102D5000C6EE076A644B1B6CC3F3080307EE103A18
:102D6000B8EE477A9FED626A67EE867A77EE277A49
:102D7000B7EE007A77EE877A66EEA76A60E01368AE
:102D800013F0200F23D011461268C2F3C102594B31
:102D9000D34007EE103AB8EE477A06EE90EAB8EE66
:102DA000666AC7EE066A0B6CC3F3080307EE103AB7
:102DB000B8EE477A9FED4E6A67EE867A77EE277A0D
:102DC000B7EE007A77EE877A66EEA76A38E007EE0C
:102DD00010EAB8EE477A9FED486AC6EE076A424BA2
:102DE0001B6CC3F3080307EE103AB8EE477A9FED69
:102DF000406A67EE867A77EE277AB7EE007A77EE4A
:102E0000877A66EEA76A1BE007EE10EAB8EE477A0B
:102E10009FED366AC6EE076A334B1B6CC3F308039B
:102E200007EE103AB8EE477A9FED316A67EE867A80
:102E300077EE277AB7EE007A77EE877A66EEA76AA2
:102E4000294A136CC3F3462307EE103AB8EE477ACB
:102E5000B7EE006A37EE067AC6EE877AFCEEE77ABE
:102E6000C0ED007A136CC3F3064307EE103AB8EED8
:102E7000477A37EE067AC6EE877AFCEEE77AC0ED3F
:102E8000017A136CC3F3066307EE903AF8EE677AA3
:102E900077EE867A86EEA77ABCEEC77A80ED027A64
:102EA00010BD07EE10EAB8EE477A9FED146AC6EE41
:102EB000076A0D4B1B6CC3F3080307EE103AB8EE1C
:102EC000477A9FED0B6A67EE867A77EE277AB7EE40
:102ED000007A77EE877A66EEA76AB1E7002303608F
:102EE00043608360DCE700BF004402580024744A5A
:102EF000000000390090D0030024744C0024F44AF0
:102F0000F0B583B0002340E0092400E00024B44081
:102F100044EA0C040235764E46F825404FF0B044A2
:102F2000D4F88050D44325EA02064F6817F4803F56
:102F300001D042EA05064FF0B045C5F88060D5F8EB
:102F4000845004EA05064F6817F4003F01D042EAB6
:102F500005064FF0B045C5F884602D6804EA050603
:102F60004F6817F4801F01D042EA05064FF0B045C4
:102F70002E606D682C404E6816F4001F01D042EAA6
:102F800005044FF0B042546001330A6832FA03F48A
:102F900000F0AB804FF0010C0CFA03FC1CEA0202BB
:102FA000F2D04C68651E112C18BF012D01D9122CCE
:102FB00013D185685E000324B44025EA0405CC687B
:102FC000B4402C438460446824EA0C0C4C68C4F37D
:102FD00000149C4044EA0C044460C6684FEA430C69
:102FE000032505FA0CF5EC4326EA050E8D6805FA73
:102FF0000CF545EA0E05C5604D68122D18BF022D6F
:1030000012D1DE08083650F8267003F007054FEAA3
:10301000850E0F2505FA0EF527EA05070D6905FA55
:103020000EF53D4340F82650056825404C6804F0F5
:10303000030404FA0CF42C4304604C6814F0805F21
:10304000A2D02C4CD4F8F45045F00205C4F8F4504A
:10305000D4F8F44004F002040194019C9D08AE1CD5
:10306000234C54F8267003F00304A6000F24B44048
:1030700027EA040C204CA0423FF448AF04F58064DA
:10308000A04222D004F58064A04220D004F58064E0
:10309000A0421ED004F58064A0421CD004F58064D8
:1030A000A0421AD004F58064A04218D004F58064D0
:1030B000A04216D004F58064A04214D004F58064C8
:1030C000A0423FF421AF0A2421E701241FE7022494
:1030D0001DE703241BE7042419E7052417E706244A
:1030E00015E7072413E7082411E703B0F0BD00BF7C
:1030F0000004005800440258000002580AB18161DF
:103100007047090481617047134BDB6813F0040FAB
:1031100007D1114BDB6803F0070383421AD001206B
:10312000704710B50C4AD36823F007031843D060EA
:1031300000F056F80446084B5B6813F4005F07D1B3
:1031400000F04EF8001BB0F57A7FF4D9012000E0C2
:10315000002010BD0020704700480258024AD36882
:1031600043F08073D36070470048025810B50320C5
:10317000FDF7C6FDFEF718FC0F498B69C3F3032367
:103180000E4AD35C03F01F03D8408B6903F00F0392
:10319000D35C03F01F0320FA03F3094A1360094BC1
:1031A00018600F20FDF75EFD10B10124204610BD10
:1031B0000446FDF73DFDF9E700440258846200082B
:1031C0000C00002008000020034B1B78034A116804
:1031D0000B441360704700BF000000209C060020D5
:1031E000014B1868704700BF9C06002038B50446A4
:1031F000FFF7F6FF0546B4F1FF3F02D0044B1B7802
:103200001C44FFF7EDFF401BA042FAD338BD00BFBE
:1032100000000020014B1868000C70470010005C93
:10322000034A536823F4600303435360704700BFAD
:10323000000400587047000090F83D30DBB2012BCD
:1032400036D1022380F83D300268D36843F0010391
:10325000D3600368184AB3F1804F18BF934219D066
:10326000A2F57C42934215D002F58062934211D0C0
:1032700002F5806293420DD002F57842934209D064
:10328000A2F56C42934205D01A6842F001021A601E
:10329000002070479968094A0A40062A18BFB2F50B
:1032A000803F07D01A6842F001021A600020704780
:1032B0000120704700207047000001400700010016
:1032C000704770477047704710B5044603681A6925
:1032D00012F0020F11D0DA6812F0020F0DD06FF069
:1032E00002021A610123037703689B6913F0030F3D
:1032F00079D0FFF7E6FF0023237723681A6912F0DD
:10330000040F12D0DA6812F0040F0ED06FF004022E
:103310001A610223237723689B6913F4407F68D0E6
:103320002046FFF7CEFF0023237723681A6912F0A7
:10333000080F12D0DA6812F0080F0ED06FF00802F2
:103340001A61042323772368DB6913F0030F57D036
:103350002046FFF7B6FF0023237723681A6912F08F
:10336000100F12D0DA6812F0100F0ED06FF01002AA
:103370001A61082323772368DB6913F4407F46D062
:103380002046FFF79EFF0023237723681A6912F077
:10339000010F03D0DA6812F0010F3FD123681A69D8
:1033A00012F0800F03D0DA6812F0800F3DD123684D
:1033B0001A6912F4807F03D0DA6812F0800F3BD1D3
:1033C00023681A6912F0400F03D0DA6812F0400F38
:1033D00039D123681A6912F0200F03D0DA6812F08D
:1033E000200F37D110BDFFF76BFF2046FFF76AFFB4
:1033F00081E72046FFF764FF2046FFF763FF92E76F
:103400002046FFF75DFF2046FFF75CFFA3E720465D
:10341000FFF756FF2046FFF755FFB4E76FF00102B4
:103420001A612046FDF7DEF8B8E76FF080021A61F6
:10343000204600F0CAF8BAE76FF480721A6120469D
:1034400000F0C4F8BCE76FF040021A612046FFF7B5
:103450003AFFBEE76FF020021A61204600F0B4F890
:10346000C0E7000030B50368394A904214BF4FF0FE
:10347000000E4FF0010EB0F1804F14BF72464EF0B7
:103480000102AAB9334CA04214BF00240124324DDA
:10349000A8420DD064B904F1804404F58234A042FE
:1034A00014BF0024012405F50065A84200D01CB11A
:1034B00023F070034C68234312BB264A904214BF8A
:1034C00000220122244CA0421AD0CAB902F1804243
:1034D00002F58232904214BF0022012204F50064FA
:1034E000A0420DD062B91D4A904214BF00220122B1
:1034F00004F59A34A04203D012B9194A904204D17B
:1035000023F4407CCB6843EA0C0323F080034A6930
:10351000134303608A68C2620A688262114A904259
:1035200014BF73464EF0010363B90C4B984214BFAD
:103530000023012302F57052904203D013B9084BC7
:10354000984201D10B6903630123436130BD00BF81
:103550000000014000080040000400400044014019
:10356000004801400004014060B310B5044690F8E3
:103570003D3013B3022384F83D30214651F8040B4B
:10358000FFF770FF012384F8483084F83E3084F858
:103590003F3084F8403084F8413084F8423084F879
:1035A000433084F8443084F8453084F8463084F859
:1035B000473084F83D30002010BD80F83C30FFF7E4
:1035C00039FED7E701207047704770477047000009
:1035D00070B586B004460168836802691343426986
:1035E0001343C26913430868884A024013430B60BF
:1035F0002268536823F44053E1680B435360A16988
:103600002268834B9A4201D0236A19439068814B08
:1036100003400B4393602268D36A23F00F03616A6F
:103620000B43D36222687C4B9A4221D07B4B9A4257
:1036300000F08C807A4B9A4200F0A280794B9A423B
:1036400000F0B580784B9A4200F0C880774B9A42E0
:1036500000F0F480764B9A4200F01981754B9A4243
:1036600000F02C816A4B9A4200F03F81802333E0C6
:10367000714B5B6D03F03803282B65D8DFE813F03E
:103680002900640064006400640064006400640055
:103690004D01640064006400640064006400640020
:1036A0002B00640064006400640064006400640033
:1036B0005E006400640064006400640064006400F0
:1036C00060006400640064006400640064006400DE
:1036D0006200012300E008234D498A4200F02F8157
:1036E000E069B0F5004F00F0AF81202B00F20782B7
:1036F000202B00F25182DFE813F01E0224024F0259
:103700004F0227024F024F024F022C024F024F027C
:103710004F024F024F024F024F0231024F024F023F
:103720004F024F024F024F024F024F024F024F0211
:103730004F024F024F024F024F023D021023CBE7D0
:103740002023C9E74023C7E78023C5E73A4B5B6DD9
:1037500003F00703052B11D8DFE813F00600E100A2
:1037600008000A000C000E000023B5E70823B3E7A9
:103770001023B1E72023AFE74023ADE78023ABE779
:103780002D4B5B6D03F00703052B0ED8DFE803F02C
:1037900003C90507090B00239EE708239CE71023B4
:1037A0009AE7202398E7402396E7802394E7224B6B
:1037B0005B6D03F00703052B0ED8DFE803F003B4BD
:1037C0000507090B002387E7082385E7102383E714
:1037D000202381E740237FE780237DE7164B5B6D45
:1037E00003F00703052B0ED8DFE803F0039F05075E
:1037F000090B002370E708236EE710236CE72023F2
:103800006AE7402368E7802366E700BFF369FFCFDC
:10381000000C0058FFF4FF1100100140004400406C
:1038200000480040004C004000500040001401409F
:1038300000780040007C0040004402587D4B5B6DE6
:1038400003F03803282B20D8DFE803F0151F1F1FD3
:103850001F1F1F1F711F1F1F1F1F1F1F171F1F1F2E
:103860001F1F1F1F191F1F1F1F1F1F1F1B1F1F1F72
:103870001F1F1F1F1D0001232EE708232CE7102305
:103880002AE7202328E7402326E7802324E7694B03
:103890005B6D03F00703052B0ED8DFE803F0034A46
:1038A0000507090B002317E7082315E7102313E783
:1038B000202311E740230FE780230DE75D4B5B6D6D
:1038C00003F00703052B0ED8DFE803F003350507E7
:1038D000090B002300E70823FEE61023FCE6202363
:1038E000FAE64023F8E68023F6E603F50E339B6DF7
:1038F00003F00703052B0ED8DFE803F0031F0507CD
:10390000090B0223E8E60823E6E61023E4E6202379
:10391000E2E64023E0E68023DEE60423DCE604233F
:10392000DAE60423D8E60423D6E60423D4E6042307
:10393000D2E60423D0E60423CEE60423CCE6202BF3
:1039400027D8022BC0F01A81023B1E2B00F21881EF
:10395000DFE813F05000160156001601160116019B
:103960005B0016011601160116011601160116015B
:103970006000160116011601160116011601160146
:10398000160116011601160116011601160116017F
:103990006C00402B2CD14FF40040626A264B33F868
:1039A0001220B0FBF2F3656805EB4501994200F285
:1039B000E980B3EB053F00F2E7800026334631464D
:1039C000FCF78EFC090241EA106100026B08C01886
:1039D0002A46334641F10001FCF782FCA0F5407213
:1039E000164B9A4200F2D2802368D8603046D4E069
:1039F0000120D2E0FFF77AF80028CED10020CCE0F9
:103A000003A8FFF785F80498F6E76846FFF77CF906
:103A10000198F1E7074B1B6813F0200F08D0054B06
:103A20001B68C3F3C1030648D840E5E70548B4E77F
:103A30000348B2E7004402585C620008FFFC0F0034
:103A40000090D00300093D00202B15D8202B00F258
:103A50009F80DFE803F031379D9D3A9D9D9D3F9DFE
:103A60009D9D9D9D9D9D449D9D9D9D9D9D9D9D9DDF
:103A70009D9D9D9D9D9D5000402B1BD1626A4D4B8D
:103A800033F81230B0FBF3F06268530803EB4000E8
:103A9000B0FBF2F080B2A0F110024FF6EF739A4241
:103AA00078D820F00F03C0F3420018432368D86091
:103AB000002072E0012070E0FEF7DCF90028DDD183
:103AC00000206AE0FEF7E8F9F8E703A8FFF720F81E
:103AD0000498F3E76846FFF717F90198EEE7364BCD
:103AE0001B6813F0200F08D0334B1B68C3F3C103CE
:103AF0003248D840E2E73248C0E73048BEE7402BC2
:103B000017D14FF40040626A2A4B33F81230B0FBF1
:103B1000F3F0636800EB5300B0FBF3F080B2A0F168
:103B200010024FF6EF739A4241D82368D860002004
:103B300033E0012031E0FEF79DF90028E3D10020B9
:103B40002BE0FEF7A9F9F8E703A8FEF7E1FF0498D8
:103B5000F3E76846FFF7D8F80198EEE7164B1B68C5
:103B600013F0200F08D0144B1B68C3F3C103134894
:103B7000D840E2E71248C6E71048C4E701200CE04D
:103B800001200AE0012008E0012006E0012004E015
:103B9000012002E0012000E001200123A4F86A30A6
:103BA000A4F8683000232367636706B070BD012066
:103BB000F3E700BF5C620008004402580090D003A5
:103BC00000093D00836A13F0010F06D002685368B4
:103BD00023F40033C16A0B435360836A13F0020F6E
:103BE00006D00268536823F48033016B0B435360A3
:103BF000836A13F0040F06D00268536823F480230D
:103C0000416B0B435360836A13F0080F06D00268C0
:103C1000536823F40043816B0B435360836A13F0B2
:103C2000100F06D00268936823F48053C16B0B43D6
:103C30009360836A13F0200F06D00268936823F420
:103C40000053016C0B439360836A13F0400F0AD05A
:103C50000268536823F48013416C0B435360436C38
:103C6000B3F5801F0BD0836A13F0800F06D0026873
:103C7000536823F40023C16C0B4353607047026800
:103C8000536823F4C003816C0B435360EBE72DE9C9
:103C9000F84305460F4616469946DDF820802C6805
:103CA000E46937EA04030CBF4FF0010C4FF0000C3D
:103CB000B44541D1B8F1FF3FF1D0FFF791FAA0EB45
:103CC0000900404524D8B8F1000F21D02B681A68AC
:103CD00012F0040FE3D0DA6912F4006FDFD04FF472
:103CE00000621A622A68136823F4D07313602A688A
:103CF000936823F0010393602023C5F88430C5F84E
:103D00008830C5F88C30002385F88030032014E01B
:103D10002A68136823F4D07313602A68936823F029
:103D2000010393602023C5F88430C5F88830002350
:103D300085F88030032000E00020BDE8F88330B52E
:103D400083B004460023C0F88C30FFF749FA0546DB
:103D50002268126812F0080F0FD123681B6813F055
:103D6000040F18D12023C4F88430C4F88830002010
:103D7000E06684F8800003B030BD6FF07E430093AE
:103D8000034600224FF400112046FFF780FF002871
:103D9000E3D00320EFE76FF07E4300932B46002231
:103DA0004FF480012046FFF772FF0028DAD003208D
:103DB000E1E778B310B50446D0F884300BB3242380
:103DC000C4F884302268136823F00103136020468E
:103DD000FFF7FEFB012813D0A36ABBB92268536822
:103DE00023F4904353602268936823F02A0393607E
:103DF0002268136843F0010313602046FFF79FFF1A
:103E000010BD80F88030FCF741FED8E72046FFF770
:103E1000D9FEE3E701207047436E2BB90123A0F8D8
:103E20006A30A0F86830704730B403689A68C2F30B
:103E300042629968490F094D6B5C1B01084C615C3B
:103E400093FBF1F3A0F86A30AB5C1B01A25C93FB1F
:103E5000F2F3A0F8683030BC704700BF7C62000805
:103E60007462000890F88030012B18D0012380F88C
:103E700080302423C0F8843003681A68196821F060
:103E80000101196022F000520023436601680A60B4
:103E90002022C0F8842080F8803018467047022025
:103EA000704738B590F88030012B1DD004460123AF
:103EB00080F880302423C0F8843003681D681A68B5
:103EC00022F001021A600268936823F060431943EC
:103ED0009160FFF7A1FF23681D602023C4F88430A0
:103EE000002084F8800038BD0220FCE738B590F847
:103EF0008030012B1DD00446012380F8803024231C
:103F0000C0F8843003681D681A6822F001021A6044
:103F10000268936823F0606319439160FFF77CFFA8
:103F200023681D602023C4F88430002084F88000BA
:103F300038BD0220FCE770B58AB0002800F09780F9
:103F40000546046890F8BD333BB3032385F8BD33C1
:103F5000E36B13F4807F01D100232B61286800F00C
:103F600009F92C4654F8106BEC460FCCACE80F0066
:103F70000FCCACE80F0094E803008CE803002B1D85
:103F80000ECB304600F0A8F8044658B1022385F85D
:103F9000BD33012420460AB070BD80F8BC33FCF765
:103FA000DDFDD2E70021286800F0EAF8234616E09C
:103FB000C3EBC30205EB8202012182F83D1082F8B7
:103FC0003C30A2F84230002182F83F1051649164E5
:103FD000C3EBC30205EB820211650133DBB26968F2
:103FE0008B42E5D316E0C4EBC40305EB8303002248
:103FF00083F8FD2183F8FC4183F8FF21C3F80422F4
:10400000C3F80822C4EBC40305EB8303C3F81022F2
:104010000134E4B2A142E6D82C4654F8106BEC46C9
:104020000FCCACE80F000FCCACE80F0094E8030015
:104030008CE803002B1D0ECB304600F0E7F8044659
:1040400060B9002385F83830012385F8BD336B6AE9
:10405000012B08D0286800F09DF99BE7022385F822
:10406000BD33012496E7284600F004F8F2E7012466
:1040700090E70000034602680121C0F8FC1300200D
:1040800083F8F403936943F000639361516D024B2D
:104090000B435365704700BF03000010002301333A
:1040A0000C4A934211D80269002AF8DA036943F0F6
:1040B0000103036100230133064A934207D80269D2
:1040C00012F0010FF7D10020704703207047032042
:1040D000704700BF400D030084B010B5044603A82C
:1040E00080E80E00089B012B1DD1A36B23F48033C5
:1040F000A363E2681D4B1340E360E36823F44013BD
:10410000E3600F9B012B09D02046FFF7C7FF069BFA
:10411000012B1BD0BDE8104004B07047E36843F4A6
:104120008013E360F0E7E36843F04003E360204678
:10413000FFF7B4FF0C9B23B9A36B43F48033A36355
:10414000E5E7A36B23F48033A363E0E7E36D9BB261
:10415000E365E26D064B1343E365A36843F0060392
:10416000A360A36843F02003A360D3E7BFFFBDFFB4
:104170000000EE03836823F0010383600020704792
:1041800008B5C36823F0C043C360012909D069B9E9
:10419000C36843F08043C3603220FFF727F8002054
:1041A00008BDC36843F00053C360F5E70120F7E79B
:1041B000890141F02001016100230133054A934246
:1041C00005D8026912F0200FF7D1002070470320B4
:1041D000704700BF400D030010230361002301332B
:1041E000054A934205D8026912F0100FF7D100205A
:1041F00070470320704700BF400D0300D0F800381F
:104200001943C0F8001800207047000084B02DE961
:10421000F041044607A880E80E00002306E003F101
:10422000400204EB82020021516001330E2BF6D9CB
:10423000119F27BBD4F8043843F00203C4F80438B4
:10424000A36B23F40013A363236843F040032360AC
:10425000236843F0800323600023C4F8003E04F584
:104260000065D4F80038C4F800380C9B012B10D13D
:10427000099B4BB900212046FFF7C0FF0DE0A36B5F
:1042800043F40013A363E7E701212046FFF7B6FFDD
:1042900003E003212046FFF7B1FF10212046FFF77E
:1042A00087FF804608B14FF001082046FFF794FFD2
:1042B00008B14FF0010800232B616B61EB610AE04C
:1042C000C3B94FF00060C2F8000900220A614FF63E
:1042D0007F328A6001330799994210D904EB431267
:1042E00002F51061D2F800090028E9DB0020C2F8CD
:1042F0000009EAE74FF09040C2F80009E5E7002323
:104300000AE0C3B14FF0904CC2F800CB002202612A
:104310004FF67F3282600133994211D904EB431288
:1043200002F53060D2F8006B002EEADB4FF0000C93
:10433000C2F800CBEAE74FF0006CC2F800CBE5E72B
:104340002B6923F480732B610023A3616FF08043FA
:1043500063610A9B1BB9A36943F01003A361A269BF
:104360000A4B1343A3610D9B1BB1A36943F00803E0
:10437000A361012F04D04046BDE8F04104B070476E
:10438000A269034B1343A361F5E700BF00383C80EB
:1043900004000040D0F8003E23F00303C0F8003EC4
:1043A000D0F8043843F00203C0F804380020704706
:1043B000294AD2F8883043F47003C2F88830274B7A
:1043C0001B6803F00F03062B06D8244A136823F05A
:1043D0000F0343F007031360214B1A6842F00102F8
:1043E0001A6000221A6119681E4A0A401A601B4BA3
:1043F0001B6813F0080F06D0184A136823F00F0348
:1044000043F007031360164B00229A61DA611A62C7
:10441000154999621549D962154919635A63996317
:10442000DA6319645A64196821F4802119601A66E4
:10443000104B1A68104B1340B3F1005F03D20F4BBF
:104440000122C3F808210E4B43F2D2021A60024B3C
:104450004FF000629A60704700ED00E000200052CB
:10446000004402587FEDF6EA000202020000FF015C
:10447000800201010010005C0000FFFF008000517D
:104480000040005200F1080343604FF0FF328260A9
:10449000C36003610023036070470023036170471A
:1044A00043684B609A688A6051609960086103684C
:1044B00001330360704730B40D68B5F1FF3F11D090
:1044C00000F108031C465B681A68AA42FAD96368BF
:1044D0004B6099608C606160086103680133036020
:1044E00030BC70470469F2E70369416882688A60FA
:1044F000416851605A68824206D0002202611A68FF
:10450000013A1A601868704782685A60F5E710B57A
:10451000044601F0C7FCA26BE36B9A4204D000246E
:1045200001F0E2FC204610BD0124F9E710B5044675
:1045300001F0B8FCA36B23B9012401F0D5FC20469F
:1045400010BD0024F9E770B504461546866B026C71
:104550005AB903681BB100200136A66370BD80689C
:1045600000F0E2FF0023A360F6E76DB9406801F0B8
:104570003BFE226C636813446360A268934219D3C4
:10458000236863602846E7E7C06801F02DFE226CCF
:104590005142E3689B1AE3602268934202D2A36807
:1045A0000B44E360022D01D00020D5E726B1013E87
:1045B0000020D1E72846CFE70020CDE70346026C74
:1045C0006AB110B50846D9681144D9609C68A14207
:1045D00001D31968D960D96801F006FE10BD704793
:1045E00038B5054601F05EFC95F8454064B201E03F
:1045F000013C64B2002C0ADD6B6A43B105F1240072
:1046000000F0E8FE0028F3D000F078FFF0E7FF2389
:1046100085F8453001F068FC01F044FC95F8444011
:1046200064B201E0013C64B2002C0ADD2B6943B1A5
:1046300005F1100000F0CEFE0028F3D000F05EFF80
:10464000F0E7FF2385F8443001F04EFC38BD38B563
:10465000E0B10D46044601F025FC2368E26B216CB5
:1046600001FB0230A0600020A0636360013A02FBFE
:104670000133E360FF2384F8443084F84530FDB90A
:10468000236963B901F030FC012038BD4FF05003BD
:1046900083F31188BFF36F8FBFF34F8FFEE704F1F1
:1046A000100000F097FE0028ECD04FF0E0234FF010
:1046B0008052C3F8042DBFF34F8FBFF36F8FE1E734
:1046C00004F11000FFF7DEFE04F12400FFF7DAFE2C
:1046D000D8E738B51D46049C0B4649B92460E06311
:1046E000236401212046FFF7B2FF84F84C5038BD07
:1046F0002260F4E740B94FF0500383F31188BFF311
:104700006F8FBFF34F8FFEE710B584B01C4683B1A7
:104710000B1E18BF0123002A08BF43F001038BB909
:104720004FF0500383F31188BFF36F8FBFF34F8FA8
:10473000FEE74FF0500383F31188BFF36F8FBFF391
:104740004F8FFEE7B1FA81F35B09002A18BF43F0EF
:10475000010343B94FF0500383F31188BFF36F8F08
:10476000BFF34F8FFEE750230393039B502B08D0DA
:104770004FF0500383F31188BFF36F8FBFF34F8F58
:10478000FEE7039B012384F8463000949DF818301F
:10479000FFF79FFF204604B010BDF0B585B0019231
:1047A00088B10F461D460446B1B1022D20D1E36BFE
:1047B000012B1DD04FF0500383F31188BFF36F8F8F
:1047C000BFF34F8FFEE74FF0500383F31188BFF321
:1047D0006F8FBFF34F8FFEE7036C002BE5D04FF0D8
:1047E000500383F31188BFF36F8FBFF34F8FFEE742
:1047F00000F08AFE064658B9019B002B48D04FF0C6
:10480000500383F31188BFF36F8FBFF34F8FFEE721
:1048100000263DE02A4639462046FFF794FE636AAB
:104820007BB948B14FF0E0234FF08052C3F8042D1C
:10483000BFF34F8FBFF36F8F01F056FB012005B020
:10484000F0BD04F1240000F0C5FD0028F4D04FF0C5
:10485000E0234FF08052C3F8042DBFF34F8FBFF316
:104860006F8FE9E701F040FB0020E8E702A800F0C5
:10487000F7FD012619E0002384F8443021E00023ED
:1048800084F8453023E02046FFF7AAFE00F082FCC2
:1048900001F008FBA26BE36B9A42BBD3022DB9D0A7
:1048A000019B002BDED0002EE0D001F01DFB00F0BC
:1048B000D7FB01F0F7FA94F8442052B2B2F1FF3F6F
:1048C000D9D094F8452052B2B2F1FF3FD7D001F0D1
:1048D0000BFB01A902A800F0CFFDD8B92046FFF7D5
:1048E00016FE0028CFD0019904F1100000F03EFD23
:1048F0002046FFF775FE00F04DFC0028C8D14FF0B0
:10490000E0234FF08052C3F8042DBFF34F8FBFF365
:104910006F8FBDE72046FFF763FE00F03BFC0020F1
:104920008DE72DE9F84390B10F4616461C46054623
:10493000B1B1022C20D1EB6B012B1DD04FF05003F5
:1049400083F31188BFF36F8FBFF34F8FFEE74FF0F4
:10495000500383F31188BFF36F8FBFF34F8FFEE7D0
:10496000036C002BE5D04FF0500383F31188BFF3A5
:104970006F8FBFF34F8FFEE701F0BAFBEFF31189A2
:104980004FF0500383F31188BFF36F8FBFF34F8F46
:10499000AA6BEB6B9A4206D3022C04D0002089F359
:1049A0001188BDE8F88395F845804FFA88F8AB6B1D
:1049B000224639462846FFF7C6FDB8F1FF3F06D02C
:1049C00008F101035BB285F845300120E7E76B6A27
:1049D0000BB90120E3E705F1240000F0FBFC18B15E
:1049E00026B101203060DAE70120D8E70120D6E7C0
:1049F000F0B585B0019290B10F460446C1B100F008
:104A000083FD064600BB019B002B5ED04FF0500398
:104A100083F31188BFF36F8FBFF34F8FFEE74FF023
:104A2000500383F31188BFF36F8FBFF34F8FFEE7FF
:104A3000036C002BE3D04FF0500383F31188BFF3D6
:104A40006F8FBFF34F8FFEE700263EE039462046CA
:104A5000FFF7B4FD013DA563236923B901F044FAD2
:104A6000012005B0F0BD04F1100000F0B3FC0028F7
:104A7000F4D04FF0E0234FF08052C3F8042DBFF381
:104A80004F8FBFF36F8FE9E701F02EFA0020E8E7C0
:104A900002A800F0E5FC012621E0002384F8443060
:104AA00029E0002384F845302BE02046FFF798FDED
:104AB00000F070FB09E02046FFF792FD00F06AFB72
:104AC0002046FFF733FD00283FD101F0EBF9A56B3D
:104AD000002DBBD1019B002BD6D0002ED8D001F0E9
:104AE00003FA00F0BDFA01F0DDF994F844305BB24E
:104AF000B3F1FF3FD1D094F845305BB2B3F1FF3F43
:104B0000CFD001F0F1F901A902A800F0B5FC00280E
:104B1000D1D12046FFF70AFD0028C6D0019904F143
:104B2000240000F023FC2046FFF75AFD00F032FB82
:104B30000028CAD14FF0E0234FF08052C3F8042D73
:104B4000BFF34F8FBFF36F8FBFE7002089E70000EF
:104B50000023072B0CD8074A52F833200AB101333F
:104B6000F7E7044A42F8331002EBC303586070477A
:104B7000704700BFA006002070B504460D461646DB
:104B800001F090F994F844305BB2B3F1FF3F0DD0DF
:104B900094F845305BB2B3F1FF3F0BD001F0A4F9BC
:104BA000A36B5BB12046FFF71BFD70BD002384F8AB
:104BB0004430EDE7002384F84530EFE732462946DC
:104BC00004F1240000F0EAFBECE70000084B1B684E
:104BD0001B6823B9074B4FF0FF321A607047044B34
:104BE0001B68DB68DB685A68024B1A60704700BFBD
:104BF000E40600208C0B00202DE9F04780460D468E
:104C000017469946089EDDF824A00A9C9200A5212B
:104C1000206B01F0F7FA236B6FF040423A4403EB4C
:104C2000820727F00707B5B34FF0000CBCF10F0F58
:104C30000BD815F80C2004EB0C0383F8342015F87E
:104C40000C3013B10CF1010CF0E7002384F8433071
:104C5000372E00D93726E662E66400252565201D3B
:104C6000FFF71BFC04F11800FFF717FC2461C6F1E5
:104C70003806A6616462656584F858504A46414624
:104C8000384601F0E5F82060BAF1000F01D0CAF80B
:104C90000040BDE8F087002384F83430D8E70000F6
:104CA00038B5002407E004EB840293000E48184452
:104CB000FFF7E8FB0134372CF5D90C4D2846FFF7F8
:104CC000E1FB0B4C2046FFF7DDFB0A48FFF7DAFB60
:104CD0000948FFF7D7FB0948FFF7D4FB084B1D60D5
:104CE000084B1C6038BD00BFEC060020600B0020A4
:104CF000740B0020980B0020C40B0020B00B002088
:104D0000E4060020E806002010B5044601F0CAF8C9
:104D1000224A136801331360214B1B685BB1214B9E
:104D20001B686BB91E4B1B68DA6AE36A9A4207D8A4
:104D30001B4B1C6004E01A4B1C601368012B29D02C
:104D4000194A1368013313606364E06A174B1B68E8
:104D5000984201D9154B186000EB8000211D144BBF
:104D600003EB8000FFF79CFB01F0BEF80D4B1B68C6
:104D70007BB10B4B1B68DA6AE36A9A4209D24FF0A7
:104D8000E0234FF08052C3F8042DBFF34F8FBFF3E1
:104D90006F8F10BDFFF784FFD2E700BF4C0B0020E0
:104DA000E0060020AC0B0020580B00205C0B00201C
:104DB000EC06002010B5044690F8593063B1012B81
:104DC00011D0022B0ED04FF0500383F31188BFF3A4
:104DD0006F8FBFF34F8FFEE7006B00F0BDFF2046E3
:104DE00000F0BAFF10BD00F0B7FFFBE70F4B1B68E8
:104DF000D3B110B501F056F80D4BDB68DC68201D0F
:104E0000FFF772FB0B4A1368013B1360074A1368F4
:104E1000013B136001F068F82046FFF7CBFF034B1E
:104E20001B68002BE6D110BD704700BF500B00205F
:104E3000C40B00204C0B002008B5FFF7D7FF074B31
:104E40001B68012BF9D94FF0E0234FF08052C3F8D3
:104E5000042DBFF34F8FBFF36F8FEEE7EC060020FA
:104E600070B504460D46194B1E68194B186804307E
:104E7000FFF73AFBB4F1FF3F14BF00230123002DDD
:104E800008BF00236BB93444114B1B685C60A64219
:104E90000ED9104B18680E4B19680431FFF70BFB45
:104EA00070BD0B4B196804310B48FFF7F9FAF7E7AF
:104EB0000A4B1868064B19680431FFF7FCFA084BD7
:104EC0001B68A342ECD9064B1C60E9E7D80B002015
:104ED000E0060020E8060020B00B0020E4060020D9
:104EE0008C0B002030B587B00B9C7CB10C9DB5B10C
:104EF0005C250495049D5C2D1AD04FF0500383F37C
:104F00001188BFF36F8FBFF34F8FFEE74FF0500351
:104F100083F31188BFF36F8FBFF34F8FFEE74FF01E
:104F2000500383F31188BFF36F8FBFF34F8FFEE7FA
:104F3000049D0C9D2C63022485F8594000240394A1
:104F4000029505AC01940A9C0094FFF755FE0C985D
:104F5000FFF7DAFE059807B030BD2DE9F04385B0C4
:104F60000746884614461E46900000F077FE00B3C0
:104F700081465C2000F072FE0546B0B1C0F830906A
:104F8000E5B1002385F85930039302950D9B0193F9
:104F90000C9B00933346224641463846FFF72CFED1
:104FA0002846FFF7B1FE012005E0484600F0D4FE98
:104FB000E6E74FF0FF3005B0BDE8F0834FF0FF307B
:104FC000F9E7000010B588B000240594069407AAFC
:104FD00006A905A800F0C6FD059B0293069B019358
:104FE00000942346079A18491848FFF77BFF184B8F
:104FF000186040B100F050FB012806D0B0F1FF3F2F
:1050000018D008B010BD0020F6E74FF0500383F32E
:105010001188BFF36F8FBFF34F8F0E4B4FF0FF32EE
:105020001A600D4B01221A600C4B00221A6000F02E
:10503000D3FFE6E74FF0500383F31188BFF36F8F80
:10504000BFF34F8FFEE700BF94620008394E00089F
:10505000880B00208C0B0020AC0B0020D80B00200C
:10506000024A136801331360704700BF540B0020DD
:10507000014B1868704700BFD80B0020F8B53A4BB9
:105080001B68002B69D1394B1D6801351D60C5B9FE
:10509000374B1B681B6843B14FF0500383F31188F3
:1050A000BFF36F8FBFF34F8FFEE7314A1168314B6B
:1050B000186810601960304A136801331360FFF7F5
:1050C00085FD2E4B1B68AB423DD900272C4B1B683E
:1050D000DB6A03EB83039A002A4B9B58012B00D910
:1050E0000127294B1B68002B3CD001273AE0012700
:1050F0001F4B1B681B6843B31D4B1B68DB68DC68D8
:1051000063689D4226D3261D3046FFF7EDF9A36A5A
:105110001BB104F11800FFF7E7F9E36A1B4A1268B4
:10512000934201D9194A136003EB83039A00314675
:1051300014481044FFF7B4F9E26A114B1B68DB6AAC
:105140009A42D4D2D4E70027D2E70C4B4FF0FF327B
:105150001A60BBE7094A1360B8E70D4A13680133C8
:10516000136000273846F8BD540B0020D80B0020F0
:10517000E4060020E8060020900B00208C0B0020A5
:10518000E0060020EC060020DC0B00205C0B002079
:10519000940B002038B5354B1B6843B94FF05003D2
:1051A00083F31188BFF36F8FBFF34F8FFEE700F0DB
:1051B00079FE2E4B1A68013A1A601B68002B4FD1FA
:1051C0002B4B1B680BB900244BE00024294B1B68B8
:1051D0001BB3284BDB68DC6804F11800FFF784F987
:1051E000251D2846FFF780F9E06A234B1B6898428B
:1051F00001D9214B186000EB800029461F4B03EBBF
:105200008000FFF74DF9E26A1D4B1B68DB6A9A428A
:10521000DCD31C4B01221A60D8E70CB1FFF7D6FC97
:10522000194B1C6884B9174B1C68D4B14FF0E023AC
:105230004FF08052C3F8042DBFF34F8FBFF36F8F31
:1052400001240EE0013C07D0FFF718FF0028F9D039
:105250000C4B01221A60F5E70B4B00221A60E2E7C3
:10526000002400F041FE204638BD00BF540B002052
:105270004C0B0020980B00205C0B0020EC0600205B
:10528000E0060020DC0B0020940B002010B5A8B134
:105290000446104B1B6843B14FF0500383F3118851
:1052A000BFF36F8FBFF34F8FFEE7FFF7D9FE0021EB
:1052B0002046FFF7D5FDFFF76DFF48B94FF0E0231B
:1052C0004FF08052C3F8042DBFF34F8FBFF36F8FA1
:1052D00010BD00BF540B00201F4B1B681BB11F4BA0
:1052E00001221A6070471D4B00221A601C4B1B687C
:1052F00003EB83018A001B498A585AB90BB1013B61
:10530000F6E74FF0500383F31188BFF36F8FBFF3BD
:105310004F8FFEE703EB830082000A445068406829
:10532000506003EB830C4FEA8C0208321144884230
:105330000BD003EB830291000A4A0A445268D168F9
:10534000094A1160064A136070474068624691003E
:10535000044A0A445060ECE7540B0020DC0B0020A8
:105360005C0B0020EC060020E006002058B110B5D0
:105370000C46094A11681831FFF79DF801212046B3
:10538000FFF76EFD10BD4FF0500383F31188BFF39C
:105390006F8FBFF34F8FFEE7E006002038B570B186
:1053A0000D4614460A4A11681831FFF779F80CB116
:1053B0004FF0FF3521462846FFF752FD38BD4FF02C
:1053C000500383F31188BFF36F8FBFF34F8FFEE756
:1053D000E006002038B5C368DC6824B304F1180582
:1053E0002846FFF781F8184B1B682BBB251D284664
:1053F000FFF77AF8E06A154B1B68984201D9134B06
:10540000186000EB80002946114B03EB8000FFF78A
:1054100047F8E26A0F4B1B68DB6A9A4211D90120F8
:105420000D4B186038BD4FF0500383F31188BFF364
:105430006F8FBFF34F8FFEE729460848FFF730F81C
:10544000E7E70020EEE700BF540B00205C0B0020D4
:10545000EC060020E0060020DC0B0020980B00206A
:10546000034B1B680360034B1B684360704700BF1E
:10547000900B0020D80B0020F8B5C8B10C460546AB
:10548000F9B100F00FFD1B4B19686B68C81A226850
:10549000B2F1FF3F26D0184E36682F68B74201D0D0
:1054A0008B4224D9824215D80023236001241AE0BC
:1054B0004FF0500383F31188BFF36F8FBFF34F8F0B
:1054C000FEE74FF0500383F31188BFF36F8FBFF3F4
:1054D0004F8FFEE75B1A134423602846FFF7C0FF97
:1054E000002400E0002400F0FFFC2046F8BD012469
:1054F000F9E700BFD80B0020900B0020014B0122E0
:105500001A607047DC0B0020054B1B6833B1054B5C
:105510001B680BB1002070470220704701207047C4
:10552000AC0B0020540B002000283BD038B50446BB
:105530001E4B1B68834208D04FF0500383F3118841
:10554000BFF36F8FBFF34F8FFEE7036D43B94FF08B
:10555000500383F31188BFF36F8FBFF34F8FFEE7C4
:10556000013B0365C16AC26C91421DD00BB10020A2
:1055700038BD051D2846FEF7B7FFE06CE062C0F1BC
:105580003803A3610A4B1B68984201D9084B186085
:1055900000EB80002946074B03EB8000FEF780FFFD
:1055A0000120E5E7002070470020E1E7E006002049
:1055B0005C0B0020EC060020064B1A6813682BB920
:1055C0000123036023B9D368186870470023F8E704
:1055D00000207047E00B002008B541600061914257
:1055E0000CD8D21A83699A4201D3012008BD011D4B
:1055F0000B4B1868FEF75FFF0020F7E79A422CBFBD
:1056000000220122994238BF00220AB10120EDE7B1
:10561000011D044B1868FEF74EFF0020E6E700BFAF
:10562000E40B0020E00B002030B583B000F03AFC22
:10563000114B1B681BB100F057FC03B030BD0F4D80
:105640002846FEF71FFF0E4C2046FEF71BFF0D4BB2
:105650001D600D4B1C60002300930C4B0C4A102165
:105660000A20FFF747F8044B18600028E3D00949E7
:10567000FFF76EFADFE700BF040D0020880C002062
:105680009C0C0020E00B0020E40B0020B40C002058
:10569000E80B00209C62000810B588B0FFF7C4FF3B
:1056A000124B1B68CBB100240594069407AA06A9E7
:1056B00005A800F063FA059B0293069B0193022361
:1056C00000932346079A0A490A48FFF70BFC0A4B46
:1056D000186010B1012008B010BD4FF0500383F3E3
:1056E0001188BFF36F8FBFF34F8FFEE7040D0020CB
:1056F000A4620008015A0008080D0020B8B19C46B9
:1057000003461848006858B300B585B0009101926F
:10571000029305291CDCFFF7F7FE022810D00023B6
:105720001A4669460F480068FFF737F815E04FF052
:10573000500383F31188BFF36F8FBFF34F8FFEE7E2
:105740000023069A694607480068FFF726F804E038
:10575000002362466946FFF7E4F805B05DF804FBF4
:1057600000207047040D002070B582B01B4B1B68F1
:105770001A6862B3DB681E68DC68251D2846FEF7E0
:10578000B3FE236A2046984794F8283013F0040F9C
:10579000ECD0A36933449E4207D26360246129465A
:1057A0000E4B1868FEF787FEE0E7002100910B46DC
:1057B00032462046FFF7A2FF0028D7D14FF0500312
:1057C00083F31188BFF36F8FBFF34F8FFEE7044A57
:1057D000106802490860136002B070BDE00B002041
:1057E000E40B002038B50546FFF742FC0446074BA2
:1057F0001B68834205D800232B60044B1C602046A5
:1058000038BDFFF7B1FF01232B60F6E7B00C002095
:1058100070B582B006460D4617490968C968CC685C
:10582000201DFEF761FE94F828C01CF0040F08D17B
:105830002CF0010C84F828C0236A2046984702B057
:1058400070BDA16933462A4631442046FFF7C4FEA5
:105850000028F1D0002100910B4632462046FFF788
:105860004DFF0028E8D14FF0500383F31188BFF3B8
:105870006F8FBFF34F8FFEE7E00B002070B582B053
:1058800006460C46FFF7ECFB01A8FFF7ABFF019BB8
:105890003BBB0546B04228BF002C19D024B1134AA7
:1058A00012681268DAB901242246711B104B18687D
:1058B000FFF762F9FFF76EFCA8B94FF0E0234FF055
:1058C0008052C3F8042DBFF34F8FBFF36F8F0AE0F0
:1058D000FFF760FC29463046FFF79AFF03E01C46BD
:1058E000E2E7FFF757FC02B070BD00BFE40B0020F9
:1058F000040D002010B588B002E0049B002B0FDAE5
:10590000002204A93D4B1868FFF772F8002873D0F5
:10591000049B002BF1DA07990698059B9847ECE762
:10592000069C636913B1201DFEF7DEFD03A8FFF797
:1059300059FF049B092BE3D8DFE803F00505053088
:1059400037500505303794F8283043F0010384F8C8
:105950002830059BA169024619442046FFF73CFE0A
:105960000028CDD0236A2046984794F8283013F0B9
:10597000040FC5D0A269002100910B46059802448E
:105980002046FFF7BBFE0028BAD14FF0500383F347
:105990001188BFF36F8FBFF34F8FFEE794F8283065
:1059A00023F0010384F82830AAE794F8283043F064
:1059B000010384F828300599A16131B103460246FC
:1059C00001442046FFF708FE9AE74FF0500383F3A7
:1059D0001188BFF36F8FBFF34F8FFEE794F8283025
:1059E00013F0020F04D023F0010384F8283087E776
:1059F000204600F0B1F983E708B010BD040D002087
:105A000000B583B001A8FFF7D7FD0199FFF736FF76
:105A1000FFF770FFF6E708B54FF0E0231B69FFF7CB
:105A200073FD012800D108BD00F0ACFAFBE70000CF
:105A3000EFF305832BB9064B186828B901221A60C9
:105A400070476FF0050070474FF0FF30704700BFA0
:105A5000680F0020EFF3058373B90A4B1B68012B15
:105A60000DD110B50024084BDC77064B02221A60DA
:105A7000FFF7A8FA204610BD6FF0050070474FF001
:105A8000FF307047680F002000ED00E0F0B587B0F0
:105A900000240594EFF3058474BB68B322B3156842
:105AA000936903B918235C1E372C49D8546814F045
:105AB000010F47D156696EB14FEA960C94682CB12C
:105AC000D7685B2F02D9176907B1C6B92CB14FF05F
:105AD000FF340EE04FF0800CF0E7D4688CB9146905
